{
  "_format": "hh-sol-artifact-1",
  "contractName": "MyEpicNFT",
  "sourceName": "contracts/MyEpicNFT.sol",
  "abi": [
    {
      "inputs": [],
      "stateMutability": "nonpayable",
      "type": "constructor"
    },
    {
      "anonymous": false,
      "inputs": [
        {
          "indexed": true,
          "internalType": "address",
          "name": "owner",
          "type": "address"
        },
        {
          "indexed": true,
          "internalType": "address",
          "name": "approved",
          "type": "address"
        },
        {
          "indexed": true,
          "internalType": "uint256",
          "name": "tokenId",
          "type": "uint256"
        }
      ],
      "name": "Approval",
      "type": "event"
    },
    {
      "anonymous": false,
      "inputs": [
        {
          "indexed": true,
          "internalType": "address",
          "name": "owner",
          "type": "address"
        },
        {
          "indexed": true,
          "internalType": "address",
          "name": "operator",
          "type": "address"
        },
        {
          "indexed": false,
          "internalType": "bool",
          "name": "approved",
          "type": "bool"
        }
      ],
      "name": "ApprovalForAll",
      "type": "event"
    },
    {
      "anonymous": false,
      "inputs": [
        {
          "indexed": false,
          "internalType": "address",
          "name": "sender",
          "type": "address"
        },
        {
          "indexed": false,
          "internalType": "uint256",
          "name": "tokenId",
          "type": "uint256"
        }
      ],
      "name": "NewEpicNFTMinted",
      "type": "event"
    },
    {
      "anonymous": false,
      "inputs": [
        {
          "indexed": true,
          "internalType": "address",
          "name": "from",
          "type": "address"
        },
        {
          "indexed": true,
          "internalType": "address",
          "name": "to",
          "type": "address"
        },
        {
          "indexed": true,
          "internalType": "uint256",
          "name": "tokenId",
          "type": "uint256"
        }
      ],
      "name": "Transfer",
      "type": "event"
    },
    {
      "inputs": [
        {
          "internalType": "address",
          "name": "to",
          "type": "address"
        },
        {
          "internalType": "uint256",
          "name": "tokenId",
          "type": "uint256"
        }
      ],
      "name": "approve",
      "outputs": [],
      "stateMutability": "nonpayable",
      "type": "function"
    },
    {
      "inputs": [],
      "name": "attemptNFTMint",
      "outputs": [],
      "stateMutability": "nonpayable",
      "type": "function"
    },
    {
      "inputs": [
        {
          "internalType": "address",
          "name": "owner",
          "type": "address"
        }
      ],
      "name": "balanceOf",
      "outputs": [
        {
          "internalType": "uint256",
          "name": "",
          "type": "uint256"
        }
      ],
      "stateMutability": "view",
      "type": "function"
    },
    {
      "inputs": [
        {
          "internalType": "uint256",
          "name": "tokenId",
          "type": "uint256"
        }
      ],
      "name": "getApproved",
      "outputs": [
        {
          "internalType": "address",
          "name": "",
          "type": "address"
        }
      ],
      "stateMutability": "view",
      "type": "function"
    },
    {
      "inputs": [],
      "name": "getTotalNoOfAttempts",
      "outputs": [
        {
          "internalType": "uint256",
          "name": "",
          "type": "uint256"
        }
      ],
      "stateMutability": "view",
      "type": "function"
    },
    {
      "inputs": [
        {
          "internalType": "address",
          "name": "owner",
          "type": "address"
        },
        {
          "internalType": "address",
          "name": "operator",
          "type": "address"
        }
      ],
      "name": "isApprovedForAll",
      "outputs": [
        {
          "internalType": "bool",
          "name": "",
          "type": "bool"
        }
      ],
      "stateMutability": "view",
      "type": "function"
    },
    {
      "inputs": [],
      "name": "makeAnEpicNFT",
      "outputs": [],
      "stateMutability": "nonpayable",
      "type": "function"
    },
    {
      "inputs": [],
      "name": "name",
      "outputs": [
        {
          "internalType": "string",
          "name": "",
          "type": "string"
        }
      ],
      "stateMutability": "view",
      "type": "function"
    },
    {
      "inputs": [
        {
          "internalType": "uint256",
          "name": "tokenId",
          "type": "uint256"
        }
      ],
      "name": "ownerOf",
      "outputs": [
        {
          "internalType": "address",
          "name": "",
          "type": "address"
        }
      ],
      "stateMutability": "view",
      "type": "function"
    },
    {
      "inputs": [
        {
          "internalType": "uint256",
          "name": "tokenId",
          "type": "uint256"
        }
      ],
      "name": "pickRandomFirstWord",
      "outputs": [
        {
          "internalType": "string",
          "name": "",
          "type": "string"
        }
      ],
      "stateMutability": "view",
      "type": "function"
    },
    {
      "inputs": [
        {
          "internalType": "uint256",
          "name": "tokenId",
          "type": "uint256"
        }
      ],
      "name": "pickRandomSecondWord",
      "outputs": [
        {
          "internalType": "string",
          "name": "",
          "type": "string"
        }
      ],
      "stateMutability": "view",
      "type": "function"
    },
    {
      "inputs": [
        {
          "internalType": "uint256",
          "name": "tokenId",
          "type": "uint256"
        }
      ],
      "name": "pickRandomThirdWord",
      "outputs": [
        {
          "internalType": "string",
          "name": "",
          "type": "string"
        }
      ],
      "stateMutability": "view",
      "type": "function"
    },
    {
      "inputs": [
        {
          "internalType": "address",
          "name": "from",
          "type": "address"
        },
        {
          "internalType": "address",
          "name": "to",
          "type": "address"
        },
        {
          "internalType": "uint256",
          "name": "tokenId",
          "type": "uint256"
        }
      ],
      "name": "safeTransferFrom",
      "outputs": [],
      "stateMutability": "nonpayable",
      "type": "function"
    },
    {
      "inputs": [
        {
          "internalType": "address",
          "name": "from",
          "type": "address"
        },
        {
          "internalType": "address",
          "name": "to",
          "type": "address"
        },
        {
          "internalType": "uint256",
          "name": "tokenId",
          "type": "uint256"
        },
        {
          "internalType": "bytes",
          "name": "_data",
          "type": "bytes"
        }
      ],
      "name": "safeTransferFrom",
      "outputs": [],
      "stateMutability": "nonpayable",
      "type": "function"
    },
    {
      "inputs": [
        {
          "internalType": "address",
          "name": "operator",
          "type": "address"
        },
        {
          "internalType": "bool",
          "name": "approved",
          "type": "bool"
        }
      ],
      "name": "setApprovalForAll",
      "outputs": [],
      "stateMutability": "nonpayable",
      "type": "function"
    },
    {
      "inputs": [
        {
          "internalType": "bytes4",
          "name": "interfaceId",
          "type": "bytes4"
        }
      ],
      "name": "supportsInterface",
      "outputs": [
        {
          "internalType": "bool",
          "name": "",
          "type": "bool"
        }
      ],
      "stateMutability": "view",
      "type": "function"
    },
    {
      "inputs": [],
      "name": "symbol",
      "outputs": [
        {
          "internalType": "string",
          "name": "",
          "type": "string"
        }
      ],
      "stateMutability": "view",
      "type": "function"
    },
    {
      "inputs": [
        {
          "internalType": "uint256",
          "name": "tokenId",
          "type": "uint256"
        }
      ],
      "name": "tokenURI",
      "outputs": [
        {
          "internalType": "string",
          "name": "",
          "type": "string"
        }
      ],
      "stateMutability": "view",
      "type": "function"
    },
    {
      "inputs": [
        {
          "internalType": "address",
          "name": "from",
          "type": "address"
        },
        {
          "internalType": "address",
          "name": "to",
          "type": "address"
        },
        {
          "internalType": "uint256",
          "name": "tokenId",
          "type": "uint256"
        }
      ],
      "name": "transferFrom",
      "outputs": [],
      "stateMutability": "nonpayable",
      "type": "function"
    }
  ],
  "bytecode": "0x608060405260405180610180016040528061016081526020016200519c61016091396009908051906020019062000038929190620010e0565b506040518061032001604052806040518060400160405280600481526020017f476f6b750000000000000000000000000000000000000000000000000000000081525081526020016040518060400160405280600881526020017f4d69646f7269796100000000000000000000000000000000000000000000000081525081526020016040518060400160405280600681526020017f536173756b65000000000000000000000000000000000000000000000000000081525081526020016040518060400160405280600581526020017f4c7566667900000000000000000000000000000000000000000000000000000081525081526020016040518060400160405280600681526020017f4e617275746f000000000000000000000000000000000000000000000000000081525081526020016040518060400160405280600681526020017f497461636869000000000000000000000000000000000000000000000000000081525081526020016040518060400160405280600681526020017f49636869676f000000000000000000000000000000000000000000000000000081525081526020016040518060400160405280600481526020017f4572656e0000000000000000000000000000000000000000000000000000000081525081526020016040518060400160405280600581526020017f4c6967687400000000000000000000000000000000000000000000000000000081525081526020016040518060400160405280600481526020017f4c6576690000000000000000000000000000000000000000000000000000000081525081526020016040518060400160405280600781526020017f4b616b617368690000000000000000000000000000000000000000000000000081525081526020016040518060400160405280600681526020017f456477617264000000000000000000000000000000000000000000000000000081525081526020016040518060400160405280600681526020017f4d696b617361000000000000000000000000000000000000000000000000000081525081526020016040518060400160405280600b81526020017f426c61636b2d5769646f7700000000000000000000000000000000000000000081525081526020016040518060400160405280600881526020017f48616e6b2050796d00000000000000000000000000000000000000000000000081525081526020016040518060400160405280600681526020017f4d616e746973000000000000000000000000000000000000000000000000000081525081526020016040518060400160405280600481526020017f4c6f6b690000000000000000000000000000000000000000000000000000000081525081526020016040518060400160405280600481526020017f54686f720000000000000000000000000000000000000000000000000000000081525081526020016040518060400160405280600481526020017f576f6e670000000000000000000000000000000000000000000000000000000081525081526020016040518060400160405280600481526020017f4b616e670000000000000000000000000000000000000000000000000000000081525081526020016040518060400160405280600881526020017f4d616e646172696e00000000000000000000000000000000000000000000000081525081526020016040518060400160405280600781526020017f416e74204d616e0000000000000000000000000000000000000000000000000081525081526020016040518060400160405280600981526020017f576f6c766572696e65000000000000000000000000000000000000000000000081525081526020016040518060400160405280600681526020017f5468616e6f73000000000000000000000000000000000000000000000000000081525081526020016040518060400160405280600a81526020017f5370696465722d4d616e00000000000000000000000000000000000000000000815250815250600a9060196200061892919062001171565b50604051806101e001604052806040518060400160405280600781526020017f20536f6c6f73200000000000000000000000000000000000000000000000000081525081526020016040518060400160405280600a81526020017f2044657374726f7973200000000000000000000000000000000000000000000081525081526020016040518060400160405280600781526020017f204265617473200000000000000000000000000000000000000000000000000081525081526020016040518060400160405280600881526020017f20426f646965732000000000000000000000000000000000000000000000000081525081526020016040518060400160405280600881526020017f20536d61636b732000000000000000000000000000000000000000000000000081525081526020016040518060400160405280600781526020017f2044656e7473200000000000000000000000000000000000000000000000000081525081526020016040518060400160405280600781526020017f20536c617073200000000000000000000000000000000000000000000000000081525081526020016040518060400160405280600881526020017f20536c696365732000000000000000000000000000000000000000000000000081525081526020016040518060400160405280600781526020017f20436c617073200000000000000000000000000000000000000000000000000081525081526020016040518060400160405280600b81526020017f20446563696d617465732000000000000000000000000000000000000000000081525081526020016040518060400160405280600881526020017f20426c617374732000000000000000000000000000000000000000000000000081525081526020016040518060400160405280600d81526020017f20416e6e6968696c61746573200000000000000000000000000000000000000081525081526020016040518060400160405280600b81526020017f204d61737361637265732000000000000000000000000000000000000000000081525081526020016040518060400160405280600981526020017f204372757368657320000000000000000000000000000000000000000000000081525081526020016040518060400160405280600b81526020017f2054616b6573204f757420000000000000000000000000000000000000000000815250815250600b90600f620009aa929190620011d8565b50604051806102e001604052806040518060400160405280600681526020017f556c74726f6e000000000000000000000000000000000000000000000000000081525081526020016040518060400160405280600881526020017f49726f6e204d616e00000000000000000000000000000000000000000000000081525081526020016040518060400160405280600481526020017f48756c6b0000000000000000000000000000000000000000000000000000000081525081526020016040518060400160405280600d81526020017f426c61636b2050616e746865720000000000000000000000000000000000000081525081526020016040518060400160405280600681526020017f47616d6f7261000000000000000000000000000000000000000000000000000081525081526020016040518060400160405280600681526020017f46616c636f6e000000000000000000000000000000000000000000000000000081525081526020016040518060400160405280600681526020017f566973696f6e000000000000000000000000000000000000000000000000000081525081526020016040518060400160405280600681526020017f566567657461000000000000000000000000000000000000000000000000000081525081526020016040518060400160405280600681526020017f4b697269746f000000000000000000000000000000000000000000000000000081525081526020016040518060400160405280600481526020017f5a6f726f0000000000000000000000000000000000000000000000000000000081525081526020016040518060400160405280600581526020017f4e6174737500000000000000000000000000000000000000000000000000000081525081526020016040518060400160405280600481526020017f5279756b0000000000000000000000000000000000000000000000000000000081525081526020016040518060400160405280600681526020017f42616b75676f000000000000000000000000000000000000000000000000000081525081526020016040518060400160405280600681526020017f53616b757261000000000000000000000000000000000000000000000000000081525081526020016040518060400160405280600781526020017f4a6972616979610000000000000000000000000000000000000000000000000081525081526020016040518060400160405280600481526020017f5065696e0000000000000000000000000000000000000000000000000000000081525081526020016040518060400160405280600a81526020017f4f726f6368696d6172750000000000000000000000000000000000000000000081525081526020016040518060400160405280600681526020017f4b616e656b69000000000000000000000000000000000000000000000000000081525081526020016040518060400160405280600781526020017f416c75636172640000000000000000000000000000000000000000000000000081525081526020016040518060400160405280600581526020017f536162657200000000000000000000000000000000000000000000000000000081525081526020016040518060400160405280600781526020017f4d757374616e670000000000000000000000000000000000000000000000000081525081526020016040518060400160405280600781526020017f54616e6a69726f0000000000000000000000000000000000000000000000000081525081526020016040518060400160405280600681526020017f4265657275730000000000000000000000000000000000000000000000000000815250815250600c90601762000f149291906200123f565b5034801562000f2257600080fd5b506040518060400160405280600881526020017f54696d6d794e46540000000000000000000000000000000000000000000000008152506040518060400160405280600581526020017f54494d4d59000000000000000000000000000000000000000000000000000000815250816000908051906020019062000fa7929190620010e0565b50806001908051906020019062000fc0929190620010e0565b5050506200100e6040518060400160405280601e81526020017f54686973206973206d79204e465420636f6e74726163742e20576f61682100008152506200101460201b620014491760201c565b62001460565b620010b4816040516024016200102b919062001374565b6040516020818303038152906040527f41304fac000000000000000000000000000000000000000000000000000000007bffffffffffffffffffffffffffffffffffffffffffffffffffffffff19166020820180517bffffffffffffffffffffffffffffffffffffffffffffffffffffffff8381831617835250505050620010b760201b60201c565b50565b60008151905060006a636f6e736f6c652e6c6f679050602083016000808483855afa5050505050565b828054620010ee90620013ea565b90600052602060002090601f0160209004810192826200111257600085556200115e565b82601f106200112d57805160ff19168380011785556200115e565b828001600101855582156200115e579182015b828111156200115d57825182559160200191906001019062001140565b5b5090506200116d9190620012a6565b5090565b828054828255906000526020600020908101928215620011c5579160200282015b82811115620011c4578251829080519060200190620011b3929190620010e0565b509160200191906001019062001192565b5b509050620011d49190620012c5565b5090565b8280548282559060005260206000209081019282156200122c579160200282015b828111156200122b5782518290805190602001906200121a929190620010e0565b5091602001919060010190620011f9565b5b5090506200123b9190620012c5565b5090565b82805482825590600052602060002090810192821562001293579160200282015b828111156200129257825182908051906020019062001281929190620010e0565b509160200191906001019062001260565b5b509050620012a29190620012c5565b5090565b5b80821115620012c1576000816000905550600101620012a7565b5090565b5b80821115620012e95760008181620012df9190620012ed565b50600101620012c6565b5090565b508054620012fb90620013ea565b6000825580601f106200130f575062001330565b601f0160209004906000526020600020908101906200132f9190620012a6565b5b50565b6000620013408262001398565b6200134c8185620013a3565b93506200135e818560208601620013b4565b62001369816200144f565b840191505092915050565b6000602082019050818103600083015262001390818462001333565b905092915050565b600081519050919050565b600082825260208201905092915050565b60005b83811015620013d4578082015181840152602081019050620013b7565b83811115620013e4576000848401525b50505050565b600060028204905060018216806200140357607f821691505b602082108114156200141a576200141962001420565b5b50919050565b7f4e487b7100000000000000000000000000000000000000000000000000000000600052602260045260246000fd5b6000601f19601f8301169050919050565b613d2c80620014706000396000f3fe608060405234801561001057600080fd5b50600436106101215760003560e01c806395d89b41116100ad578063c575757a11610071578063c575757a14610318578063c87b56dd14610348578063ca4e97e314610378578063de9d132f14610396578063e985e9c5146103a057610121565b806395d89b411461028857806397ae15bc146102a6578063a22cb465146102b0578063b187301f146102cc578063b88d4fde146102fc57610121565b806323b872dd116100f457806323b872dd146101c05780632de38d68146101dc57806342842e0e1461020c5780636352211e1461022857806370a082311461025857610121565b806301ffc9a71461012657806306fdde0314610156578063081812fc14610174578063095ea7b3146101a4575b600080fd5b610140600480360381019061013b9190612814565b6103d0565b60405161014d9190613502565b60405180910390f35b61015e6104b2565b60405161016b919061351d565b60405180910390f35b61018e60048036038101906101899190612866565b610544565b60405161019b9190613472565b60405180910390f35b6101be60048036038101906101b991906127d8565b6105c9565b005b6101da60048036038101906101d591906126d2565b6106e1565b005b6101f660048036038101906101f19190612866565b610741565b604051610203919061351d565b60405180910390f35b610226600480360381019061022191906126d2565b61085f565b005b610242600480360381019061023d9190612866565b61087f565b60405161024f9190613472565b60405180910390f35b610272600480360381019061026d919061266d565b610931565b60405161027f919061381d565b60405180910390f35b6102906109e9565b60405161029d919061351d565b60405180910390f35b6102ae610a7b565b005b6102ca60048036038101906102c5919061279c565b610b7f565b005b6102e660048036038101906102e19190612866565b610d00565b6040516102f3919061351d565b60405180910390f35b61031660048036038101906103119190612721565b610e1e565b005b610332600480360381019061032d9190612866565b610e80565b60405161033f919061351d565b60405180910390f35b610362600480360381019061035d9190612866565b610f9e565b60405161036f919061351d565b60405180910390f35b6103806110f0565b60405161038d919061381d565b60405180910390f35b61039e61113b565b005b6103ba60048036038101906103b59190612696565b6113b5565b6040516103c79190613502565b60405180910390f35b60007f80ac58cd000000000000000000000000000000000000000000000000000000007bffffffffffffffffffffffffffffffffffffffffffffffffffffffff1916827bffffffffffffffffffffffffffffffffffffffffffffffffffffffff1916148061049b57507f5b5e139f000000000000000000000000000000000000000000000000000000007bffffffffffffffffffffffffffffffffffffffffffffffffffffffff1916827bffffffffffffffffffffffffffffffffffffffffffffffffffffffff1916145b806104ab57506104aa826114e2565b5b9050919050565b6060600080546104c190613abc565b80601f01602080910402602001604051908101604052809291908181526020018280546104ed90613abc565b801561053a5780601f1061050f5761010080835404028352916020019161053a565b820191906000526020600020905b81548152906001019060200180831161051d57829003601f168201915b5050505050905090565b600061054f8261154c565b61058e576040517f08c379a00000000000000000000000000000000000000000000000000000000081526004016105859061377d565b60405180910390fd5b6004600083815260200190815260200160002060009054906101000a900473ffffffffffffffffffffffffffffffffffffffff169050919050565b60006105d48261087f565b90508073ffffffffffffffffffffffffffffffffffffffff168373ffffffffffffffffffffffffffffffffffffffff161415610645576040517f08c379a000000000000000000000000000000000000000000000000000000000815260040161063c906137dd565b60405180910390fd5b8073ffffffffffffffffffffffffffffffffffffffff166106646115b8565b73ffffffffffffffffffffffffffffffffffffffff16148061069357506106928161068d6115b8565b6113b5565b5b6106d2576040517f08c379a00000000000000000000000000000000000000000000000000000000081526004016106c9906136bd565b60405180910390fd5b6106dc83836115c0565b505050565b6106f26106ec6115b8565b82611679565b610731576040517f08c379a0000000000000000000000000000000000000000000000000000000008152600401610728906137fd565b60405180910390fd5b61073c838383611757565b505050565b60606000610775610751846119b3565b604051602001610761919061342e565b604051602081830303815290604052611b60565b9050600a80549050816107889190613b37565b9050600a81815481106107c4577f4e487b7100000000000000000000000000000000000000000000000000000000600052603260045260246000fd5b9060005260206000200180546107d990613abc565b80601f016020809104026020016040519081016040528092919081815260200182805461080590613abc565b80156108525780601f1061082757610100808354040283529160200191610852565b820191906000526020600020905b81548152906001019060200180831161083557829003601f168201915b5050505050915050919050565b61087a83838360405180602001604052806000815250610e1e565b505050565b6000806002600084815260200190815260200160002060009054906101000a900473ffffffffffffffffffffffffffffffffffffffff169050600073ffffffffffffffffffffffffffffffffffffffff168173ffffffffffffffffffffffffffffffffffffffff161415610928576040517f08c379a000000000000000000000000000000000000000000000000000000000815260040161091f906136fd565b60405180910390fd5b80915050919050565b60008073ffffffffffffffffffffffffffffffffffffffff168273ffffffffffffffffffffffffffffffffffffffff1614156109a2576040517f08c379a0000000000000000000000000000000000000000000000000000000008152600401610999906136dd565b60405180910390fd5b600360008373ffffffffffffffffffffffffffffffffffffffff1673ffffffffffffffffffffffffffffffffffffffff168152602001908152602001600020549050919050565b6060600180546109f890613abc565b80601f0160208091040260200160405190810160405280929190818152602001828054610a2490613abc565b8015610a715780601f10610a4657610100808354040283529160200191610a71565b820191906000526020600020905b815481529060010190602001808311610a5457829003601f168201915b5050505050905090565b600160086000828254610a8e91906138f1565b92505081905550610ad46040518060400160405280601481526020017f257320686173206d696e74656420616e204e465400000000000000000000000081525033611b93565b600d60405180604001604052803373ffffffffffffffffffffffffffffffffffffffff16815260200142815250908060018154018082558091505060019003906000526020600020906002020160009091909190915060008201518160000160006101000a81548173ffffffffffffffffffffffffffffffffffffffff021916908373ffffffffffffffffffffffffffffffffffffffff160217905550602082015181600101555050565b610b876115b8565b73ffffffffffffffffffffffffffffffffffffffff168273ffffffffffffffffffffffffffffffffffffffff161415610bf5576040517f08c379a0000000000000000000000000000000000000000000000000000000008152600401610bec9061365d565b60405180910390fd5b8060056000610c026115b8565b73ffffffffffffffffffffffffffffffffffffffff1673ffffffffffffffffffffffffffffffffffffffff16815260200190815260200160002060008473ffffffffffffffffffffffffffffffffffffffff1673ffffffffffffffffffffffffffffffffffffffff16815260200190815260200160002060006101000a81548160ff0219169083151502179055508173ffffffffffffffffffffffffffffffffffffffff16610caf6115b8565b73ffffffffffffffffffffffffffffffffffffffff167f17307eab39ab6107e8899845ad3d59bd9653f200f220920489ca2b5937696c3183604051610cf49190613502565b60405180910390a35050565b60606000610d34610d10846119b3565b604051602001610d2091906133c7565b604051602081830303815290604052611b60565b9050600b8054905081610d479190613b37565b9050600b8181548110610d83577f4e487b7100000000000000000000000000000000000000000000000000000000600052603260045260246000fd5b906000526020600020018054610d9890613abc565b80601f0160208091040260200160405190810160405280929190818152602001828054610dc490613abc565b8015610e115780601f10610de657610100808354040283529160200191610e11565b820191906000526020600020905b815481529060010190602001808311610df457829003601f168201915b5050505050915050919050565b610e2f610e296115b8565b83611679565b610e6e576040517f08c379a0000000000000000000000000000000000000000000000000000000008152600401610e65906137fd565b60405180910390fd5b610e7a84848484611c2f565b50505050565b60606000610eb4610e90846119b3565b604051602001610ea091906133a5565b604051602081830303815290604052611b60565b9050600c8054905081610ec79190613b37565b9050600c8181548110610f03577f4e487b7100000000000000000000000000000000000000000000000000000000600052603260045260246000fd5b906000526020600020018054610f1890613abc565b80601f0160208091040260200160405190810160405280929190818152602001828054610f4490613abc565b8015610f915780601f10610f6657610100808354040283529160200191610f91565b820191906000526020600020905b815481529060010190602001808311610f7457829003601f168201915b5050505050915050919050565b6060610fa98261154c565b610fe8576040517f08c379a0000000000000000000000000000000000000000000000000000000008152600401610fdf9061375d565b60405180910390fd5b600060066000848152602001908152602001600020805461100890613abc565b80601f016020809104026020016040519081016040528092919081815260200182805461103490613abc565b80156110815780601f1061105657610100808354040283529160200191611081565b820191906000526020600020905b81548152906001019060200180831161106457829003601f168201915b505050505090506000611092611c8b565b90506000815114156110a85781925050506110eb565b6000825111156110dd5780826040516020016110c5929190613321565b604051602081830303815290604052925050506110eb565b6110e684611ca2565b925050505b919050565b60006111336040518060400160405280601a81526020017f5765206861766520256420746f74616c20617474656d70747321000000000000815250600854611d49565b600854905090565b60326008541115611181576040517f08c379a0000000000000000000000000000000000000000000000000000000008152600401611178906135fd565b60405180910390fd5b6033600854106111c6576040517f08c379a00000000000000000000000000000000000000000000000000000000081526004016111bd9061367d565b60405180910390fd5b60006111d26007611de5565b905060006111df82610741565b905060006111ec83610d00565b905060006111f984610e80565b9050600083838360405160200161121293929190613345565b60405160208183030381529060405290506000600982604051602001611239929190613376565b6040516020818303038152906040529050600061127e8361125984611df3565b60405160200161126a9291906133e9565b604051602081830303815290604052611df3565b90506000816040516020016112939190613450565b60405160208183030381529060405290506112e26040518060400160405280601581526020017f0a2d2d2d2d2d2d2d2d2d2d2d2d2d2d2d2d2d2d2d2d0000000000000000000000815250611449565b6112eb81611449565b6113296040518060400160405280601581526020017f2d2d2d2d2d2d2d2d2d2d2d2d2d2d2d2d2d2d2d2d0a0000000000000000000000815250611449565b6113333389611fb1565b61133d8882611fcf565b611345610a7b565b61134f6007612043565b611372604051806060016040528060258152602001613c92602591398933612059565b7febb98688741ffa4c7589bf325de30cf7becb63de567842e1ccdb6cb949fdc82c33896040516113a39291906134d9565b60405180910390a15050505050505050565b6000600560008473ffffffffffffffffffffffffffffffffffffffff1673ffffffffffffffffffffffffffffffffffffffff16815260200190815260200160002060008373ffffffffffffffffffffffffffffffffffffffff1673ffffffffffffffffffffffffffffffffffffffff16815260200190815260200160002060009054906101000a900460ff16905092915050565b6114df8160405160240161145d919061351d565b6040516020818303038152906040527f41304fac000000000000000000000000000000000000000000000000000000007bffffffffffffffffffffffffffffffffffffffffffffffffffffffff19166020820180517bffffffffffffffffffffffffffffffffffffffffffffffffffffffff83818316178352505050506120f8565b50565b60007f01ffc9a7000000000000000000000000000000000000000000000000000000007bffffffffffffffffffffffffffffffffffffffffffffffffffffffff1916827bffffffffffffffffffffffffffffffffffffffffffffffffffffffff1916149050919050565b60008073ffffffffffffffffffffffffffffffffffffffff166002600084815260200190815260200160002060009054906101000a900473ffffffffffffffffffffffffffffffffffffffff1673ffffffffffffffffffffffffffffffffffffffff1614159050919050565b600033905090565b816004600083815260200190815260200160002060006101000a81548173ffffffffffffffffffffffffffffffffffffffff021916908373ffffffffffffffffffffffffffffffffffffffff160217905550808273ffffffffffffffffffffffffffffffffffffffff166116338361087f565b73ffffffffffffffffffffffffffffffffffffffff167f8c5be1e5ebec7d5bd14f71427d1e84f3dd0314c0f7b2291e5b200ac8c7c3b92560405160405180910390a45050565b60006116848261154c565b6116c3576040517f08c379a00000000000000000000000000000000000000000000000000000000081526004016116ba9061369d565b60405180910390fd5b60006116ce8361087f565b90508073ffffffffffffffffffffffffffffffffffffffff168473ffffffffffffffffffffffffffffffffffffffff16148061173d57508373ffffffffffffffffffffffffffffffffffffffff1661172584610544565b73ffffffffffffffffffffffffffffffffffffffff16145b8061174e575061174d81856113b5565b5b91505092915050565b8273ffffffffffffffffffffffffffffffffffffffff166117778261087f565b73ffffffffffffffffffffffffffffffffffffffff16146117cd576040517f08c379a00000000000000000000000000000000000000000000000000000000081526004016117c49061379d565b60405180910390fd5b600073ffffffffffffffffffffffffffffffffffffffff168273ffffffffffffffffffffffffffffffffffffffff16141561183d576040517f08c379a00000000000000000000000000000000000000000000000000000000081526004016118349061363d565b60405180910390fd5b611848838383612121565b6118536000826115c0565b6001600360008573ffffffffffffffffffffffffffffffffffffffff1673ffffffffffffffffffffffffffffffffffffffff16815260200190815260200160002060008282546118a391906139d2565b925050819055506001600360008473ffffffffffffffffffffffffffffffffffffffff1673ffffffffffffffffffffffffffffffffffffffff16815260200190815260200160002060008282546118fa91906138f1565b92505081905550816002600083815260200190815260200160002060006101000a81548173ffffffffffffffffffffffffffffffffffffffff021916908373ffffffffffffffffffffffffffffffffffffffff160217905550808273ffffffffffffffffffffffffffffffffffffffff168473ffffffffffffffffffffffffffffffffffffffff167fddf252ad1be2c89b69c2b068fc378daa952ba7f163c4a11628f55a4df523b3ef60405160405180910390a4505050565b606060008214156119fb576040518060400160405280600181526020017f30000000000000000000000000000000000000000000000000000000000000008152509050611b5b565b600082905060005b60008214611a2d578080611a1690613aee565b915050600a82611a269190613947565b9150611a03565b60008167ffffffffffffffff811115611a6f577f4e487b7100000000000000000000000000000000000000000000000000000000600052604160045260246000fd5b6040519080825280601f01601f191660200182016040528015611aa15781602001600182028036833780820191505090505b5090505b60008514611b5457600182611aba91906139d2565b9150600a85611ac99190613b37565b6030611ad591906138f1565b60f81b818381518110611b11577f4e487b7100000000000000000000000000000000000000000000000000000000600052603260045260246000fd5b60200101907effffffffffffffffffffffffffffffffffffffffffffffffffffffffffffff1916908160001a905350600a85611b4d9190613947565b9450611aa5565b8093505050505b919050565b600081604051602001611b73919061330a565b6040516020818303038152906040528051906020012060001c9050919050565b611c2b8282604051602401611ba992919061353f565b6040516020818303038152906040527f319af333000000000000000000000000000000000000000000000000000000007bffffffffffffffffffffffffffffffffffffffffffffffffffffffff19166020820180517bffffffffffffffffffffffffffffffffffffffffffffffffffffffff83818316178352505050506120f8565b5050565b611c3a848484611757565b611c4684848484612126565b611c85576040517f08c379a0000000000000000000000000000000000000000000000000000000008152600401611c7c906135dd565b60405180910390fd5b50505050565b606060405180602001604052806000815250905090565b6060611cad8261154c565b611cec576040517f08c379a0000000000000000000000000000000000000000000000000000000008152600401611ce3906137bd565b60405180910390fd5b6000611cf6611c8b565b90506000815111611d165760405180602001604052806000815250611d41565b80611d20846119b3565b604051602001611d31929190613321565b6040516020818303038152906040525b915050919050565b611de18282604051602401611d5f92919061356f565b6040516020818303038152906040527f9710a9d0000000000000000000000000000000000000000000000000000000007bffffffffffffffffffffffffffffffffffffffffffffffffffffffff19166020820180517bffffffffffffffffffffffffffffffffffffffffffffffffffffffff83818316178352505050506120f8565b5050565b600081600001549050919050565b60606000825190506000811415611e1c5760405180602001604052806000815250915050611fac565b60006003600283611e2d91906138f1565b611e379190613947565b6004611e439190613978565b90506000602082611e5491906138f1565b67ffffffffffffffff811115611e93577f4e487b7100000000000000000000000000000000000000000000000000000000600052604160045260246000fd5b6040519080825280601f01601f191660200182016040528015611ec55781602001600182028036833780820191505090505b5090506000604051806060016040528060408152602001613cb7604091399050600181016020830160005b86811015611f695760038101905062ffffff818a015116603f8160121c168401518060081b905060ff603f83600c1c1686015116810190508060081b905060ff603f8360061c1686015116810190508060081b905060ff603f831686015116810190508060e01b90508084526004840193505050611ef0565b506003860660018114611f835760028114611f9357611f9e565b613d3d60f01b6002830352611f9e565b603d60f81b60018303525b508484525050819450505050505b919050565b611fcb8282604051806020016040528060008152506122bd565b5050565b611fd88261154c565b612017576040517f08c379a000000000000000000000000000000000000000000000000000000000815260040161200e9061371d565b60405180910390fd5b8060066000848152602001908152602001600020908051906020019061203e9291906124f9565b505050565b6001816000016000828254019250508190555050565b6120f38383836040516024016120719392919061359f565b6040516020818303038152906040527fe3849f79000000000000000000000000000000000000000000000000000000007bffffffffffffffffffffffffffffffffffffffffffffffffffffffff19166020820180517bffffffffffffffffffffffffffffffffffffffffffffffffffffffff83818316178352505050506120f8565b505050565b60008151905060006a636f6e736f6c652e6c6f679050602083016000808483855afa5050505050565b505050565b60006121478473ffffffffffffffffffffffffffffffffffffffff16612318565b156122b0578373ffffffffffffffffffffffffffffffffffffffff1663150b7a026121706115b8565b8786866040518563ffffffff1660e01b8152600401612192949392919061348d565b602060405180830381600087803b1580156121ac57600080fd5b505af19250505080156121dd57506040513d601f19601f820116820180604052508101906121da919061283d565b60015b612260573d806000811461220d576040519150601f19603f3d011682016040523d82523d6000602084013e612212565b606091505b50600081511415612258576040517f08c379a000000000000000000000000000000000000000000000000000000000815260040161224f906135dd565b60405180910390fd5b805181602001fd5b63150b7a0260e01b7bffffffffffffffffffffffffffffffffffffffffffffffffffffffff1916817bffffffffffffffffffffffffffffffffffffffffffffffffffffffff1916149150506122b5565b600190505b949350505050565b6122c7838361232b565b6122d46000848484612126565b612313576040517f08c379a000000000000000000000000000000000000000000000000000000000815260040161230a906135dd565b60405180910390fd5b505050565b600080823b905060008111915050919050565b600073ffffffffffffffffffffffffffffffffffffffff168273ffffffffffffffffffffffffffffffffffffffff16141561239b576040517f08c379a00000000000000000000000000000000000000000000000000000000081526004016123929061373d565b60405180910390fd5b6123a48161154c565b156123e4576040517f08c379a00000000000000000000000000000000000000000000000000000000081526004016123db9061361d565b60405180910390fd5b6123f060008383612121565b6001600360008473ffffffffffffffffffffffffffffffffffffffff1673ffffffffffffffffffffffffffffffffffffffff168152602001908152602001600020600082825461244091906138f1565b92505081905550816002600083815260200190815260200160002060006101000a81548173ffffffffffffffffffffffffffffffffffffffff021916908373ffffffffffffffffffffffffffffffffffffffff160217905550808273ffffffffffffffffffffffffffffffffffffffff16600073ffffffffffffffffffffffffffffffffffffffff167fddf252ad1be2c89b69c2b068fc378daa952ba7f163c4a11628f55a4df523b3ef60405160405180910390a45050565b82805461250590613abc565b90600052602060002090601f016020900481019282612527576000855561256e565b82601f1061254057805160ff191683800117855561256e565b8280016001018555821561256e579182015b8281111561256d578251825591602001919060010190612552565b5b50905061257b919061257f565b5090565b5b80821115612598576000816000905550600101612580565b5090565b60006125af6125aa84613869565b613838565b9050828152602081018484840111156125c757600080fd5b6125d2848285613a7a565b509392505050565b6000813590506125e981613c35565b92915050565b6000813590506125fe81613c4c565b92915050565b60008135905061261381613c63565b92915050565b60008151905061262881613c63565b92915050565b600082601f83011261263f57600080fd5b813561264f84826020860161259c565b91505092915050565b60008135905061266781613c7a565b92915050565b60006020828403121561267f57600080fd5b600061268d848285016125da565b91505092915050565b600080604083850312156126a957600080fd5b60006126b7858286016125da565b92505060206126c8858286016125da565b9150509250929050565b6000806000606084860312156126e757600080fd5b60006126f5868287016125da565b9350506020612706868287016125da565b925050604061271786828701612658565b9150509250925092565b6000806000806080858703121561273757600080fd5b6000612745878288016125da565b9450506020612756878288016125da565b935050604061276787828801612658565b925050606085013567ffffffffffffffff81111561278457600080fd5b6127908782880161262e565b91505092959194509250565b600080604083850312156127af57600080fd5b60006127bd858286016125da565b92505060206127ce858286016125ef565b9150509250929050565b600080604083850312156127eb57600080fd5b60006127f9858286016125da565b925050602061280a85828601612658565b9150509250929050565b60006020828403121561282657600080fd5b600061283484828501612604565b91505092915050565b60006020828403121561284f57600080fd5b600061285d84828501612619565b91505092915050565b60006020828403121561287857600080fd5b600061288684828501612658565b91505092915050565b61289881613a06565b82525050565b6128a781613a18565b82525050565b60006128b8826138ae565b6128c281856138c4565b93506128d2818560208601613a89565b6128db81613c24565b840191505092915050565b60006128f1826138b9565b6128fb81856138d5565b935061290b818560208601613a89565b61291481613c24565b840191505092915050565b600061292a826138b9565b61293481856138e6565b9350612944818560208601613a89565b80840191505092915050565b6000815461295d81613abc565b61296781866138e6565b945060018216600081146129825760018114612993576129c6565b60ff198316865281860193506129c6565b61299c85613899565b60005b838110156129be5781548189015260018201915060208101905061299f565b838801955050505b50505092915050565b60006129dc6032836138d5565b91507f4552433732313a207472616e7366657220746f206e6f6e20455243373231526560008301527f63656976657220696d706c656d656e74657200000000000000000000000000006020830152604082019050919050565b6000612a426023836138d5565b91507f5573657220686173206d696e74656420746865204d6178204e6f2e206f66204e60008301527f46547300000000000000000000000000000000000000000000000000000000006020830152604082019050919050565b6000612aa8601c836138d5565b91507f4552433732313a20746f6b656e20616c7265616479206d696e746564000000006000830152602082019050919050565b6000612ae8600a836138e6565b91507f54484952445f574f5244000000000000000000000000000000000000000000006000830152600a82019050919050565b6000612b286071836138e6565b91507f222c20226465736372697074696f6e223a20224120686967686c79206163636c60008301527f61696d656420636f6c6c656374696f6e206f6620636f6e74726f76657273696160208301527f6c20737175617265732e222c2022696d616765223a2022646174613a696d616760408301527f652f7376672b786d6c3b6261736536342c0000000000000000000000000000006060830152607182019050919050565b6000612bda6024836138d5565b91507f4552433732313a207472616e7366657220746f20746865207a65726f2061646460008301527f72657373000000000000000000000000000000000000000000000000000000006020830152604082019050919050565b6000612c406019836138d5565b91507f4552433732313a20617070726f766520746f2063616c6c6572000000000000006000830152602082019050919050565b6000612c80602c836138d5565b91507f546f74616c204e6f2e204f6620417474656d707473204d75737420737461792060008301527f6c657373207468616e20353000000000000000000000000000000000000000006020830152604082019050919050565b6000612ce6600b836138e6565b91507f5345434f4e445f574f52440000000000000000000000000000000000000000006000830152600b82019050919050565b6000612d26602c836138d5565b91507f4552433732313a206f70657261746f7220717565727920666f72206e6f6e657860008301527f697374656e7420746f6b656e00000000000000000000000000000000000000006020830152604082019050919050565b6000612d8c600d836138e6565b91507f3c2f746578743e3c2f7376673e000000000000000000000000000000000000006000830152600d82019050919050565b6000612dcc6038836138d5565b91507f4552433732313a20617070726f76652063616c6c6572206973206e6f74206f7760008301527f6e6572206e6f7220617070726f76656420666f7220616c6c00000000000000006020830152604082019050919050565b6000612e32602a836138d5565b91507f4552433732313a2062616c616e636520717565727920666f7220746865207a6560008301527f726f2061646472657373000000000000000000000000000000000000000000006020830152604082019050919050565b6000612e986029836138d5565b91507f4552433732313a206f776e657220717565727920666f72206e6f6e657869737460008301527f656e7420746f6b656e00000000000000000000000000000000000000000000006020830152604082019050919050565b6000612efe602e836138d5565b91507f45524337323155524953746f726167653a2055524920736574206f66206e6f6e60008301527f6578697374656e7420746f6b656e0000000000000000000000000000000000006020830152604082019050919050565b6000612f646002836138e6565b91507f227d0000000000000000000000000000000000000000000000000000000000006000830152600282019050919050565b6000612fa46020836138d5565b91507f4552433732313a206d696e7420746f20746865207a65726f20616464726573736000830152602082019050919050565b6000612fe46031836138d5565b91507f45524337323155524953746f726167653a2055524920717565727920666f722060008301527f6e6f6e6578697374656e7420746f6b656e0000000000000000000000000000006020830152604082019050919050565b600061304a602c836138d5565b91507f4552433732313a20617070726f76656420717565727920666f72206e6f6e657860008301527f697374656e7420746f6b656e00000000000000000000000000000000000000006020830152604082019050919050565b60006130b06029836138d5565b91507f4552433732313a207472616e73666572206f6620746f6b656e2074686174206960008301527f73206e6f74206f776e00000000000000000000000000000000000000000000006020830152604082019050919050565b6000613116602f836138d5565b91507f4552433732314d657461646174613a2055524920717565727920666f72206e6f60008301527f6e6578697374656e7420746f6b656e00000000000000000000000000000000006020830152604082019050919050565b600061317c600a836138e6565b91507f7b226e616d65223a2022000000000000000000000000000000000000000000006000830152600a82019050919050565b60006131bc6021836138d5565b91507f4552433732313a20617070726f76616c20746f2063757272656e74206f776e6560008301527f72000000000000000000000000000000000000000000000000000000000000006020830152604082019050919050565b6000613222600a836138e6565b91507f46495253545f574f5244000000000000000000000000000000000000000000006000830152600a82019050919050565b6000613262601d836138e6565b91507f646174613a6170706c69636174696f6e2f6a736f6e3b6261736536342c0000006000830152601d82019050919050565b60006132a26031836138d5565b91507f4552433732313a207472616e736665722063616c6c6572206973206e6f74206f60008301527f776e6572206e6f7220617070726f7665640000000000000000000000000000006020830152604082019050919050565b61330481613a70565b82525050565b6000613316828461291f565b915081905092915050565b600061332d828561291f565b9150613339828461291f565b91508190509392505050565b6000613351828661291f565b915061335d828561291f565b9150613369828461291f565b9150819050949350505050565b60006133828285612950565b915061338e828461291f565b915061339982612d7f565b91508190509392505050565b60006133b082612adb565b91506133bc828461291f565b915081905092915050565b60006133d282612cd9565b91506133de828461291f565b915081905092915050565b60006133f48261316f565b9150613400828561291f565b915061340b82612b1b565b9150613417828461291f565b915061342282612f57565b91508190509392505050565b600061343982613215565b9150613445828461291f565b915081905092915050565b600061345b82613255565b9150613467828461291f565b915081905092915050565b6000602082019050613487600083018461288f565b92915050565b60006080820190506134a2600083018761288f565b6134af602083018661288f565b6134bc60408301856132fb565b81810360608301526134ce81846128ad565b905095945050505050565b60006040820190506134ee600083018561288f565b6134fb60208301846132fb565b9392505050565b6000602082019050613517600083018461289e565b92915050565b6000602082019050818103600083015261353781846128e6565b905092915050565b6000604082019050818103600083015261355981856128e6565b9050613568602083018461288f565b9392505050565b6000604082019050818103600083015261358981856128e6565b905061359860208301846132fb565b9392505050565b600060608201905081810360008301526135b981866128e6565b90506135c860208301856132fb565b6135d5604083018461288f565b949350505050565b600060208201905081810360008301526135f6816129cf565b9050919050565b6000602082019050818103600083015261361681612a35565b9050919050565b6000602082019050818103600083015261363681612a9b565b9050919050565b6000602082019050818103600083015261365681612bcd565b9050919050565b6000602082019050818103600083015261367681612c33565b9050919050565b6000602082019050818103600083015261369681612c73565b9050919050565b600060208201905081810360008301526136b681612d19565b9050919050565b600060208201905081810360008301526136d681612dbf565b9050919050565b600060208201905081810360008301526136f681612e25565b9050919050565b6000602082019050818103600083015261371681612e8b565b9050919050565b6000602082019050818103600083015261373681612ef1565b9050919050565b6000602082019050818103600083015261375681612f97565b9050919050565b6000602082019050818103600083015261377681612fd7565b9050919050565b600060208201905081810360008301526137968161303d565b9050919050565b600060208201905081810360008301526137b6816130a3565b9050919050565b600060208201905081810360008301526137d681613109565b9050919050565b600060208201905081810360008301526137f6816131af565b9050919050565b6000602082019050818103600083015261381681613295565b9050919050565b600060208201905061383260008301846132fb565b92915050565b6000604051905081810181811067ffffffffffffffff8211171561385f5761385e613bf5565b5b8060405250919050565b600067ffffffffffffffff82111561388457613883613bf5565b5b601f19601f8301169050602081019050919050565b60008190508160005260206000209050919050565b600081519050919050565b600081519050919050565b600082825260208201905092915050565b600082825260208201905092915050565b600081905092915050565b60006138fc82613a70565b915061390783613a70565b9250827fffffffffffffffffffffffffffffffffffffffffffffffffffffffffffffffff0382111561393c5761393b613b68565b5b828201905092915050565b600061395282613a70565b915061395d83613a70565b92508261396d5761396c613b97565b5b828204905092915050565b600061398382613a70565b915061398e83613a70565b9250817fffffffffffffffffffffffffffffffffffffffffffffffffffffffffffffffff04831182151516156139c7576139c6613b68565b5b828202905092915050565b60006139dd82613a70565b91506139e883613a70565b9250828210156139fb576139fa613b68565b5b828203905092915050565b6000613a1182613a50565b9050919050565b60008115159050919050565b60007fffffffff0000000000000000000000000000000000000000000000000000000082169050919050565b600073ffffffffffffffffffffffffffffffffffffffff82169050919050565b6000819050919050565b82818337600083830152505050565b60005b83811015613aa7578082015181840152602081019050613a8c565b83811115613ab6576000848401525b50505050565b60006002820490506001821680613ad457607f821691505b60208210811415613ae857613ae7613bc6565b5b50919050565b6000613af982613a70565b91507fffffffffffffffffffffffffffffffffffffffffffffffffffffffffffffffff821415613b2c57613b2b613b68565b5b600182019050919050565b6000613b4282613a70565b9150613b4d83613a70565b925082613b5d57613b5c613b97565b5b828206905092915050565b7f4e487b7100000000000000000000000000000000000000000000000000000000600052601160045260246000fd5b7f4e487b7100000000000000000000000000000000000000000000000000000000600052601260045260246000fd5b7f4e487b7100000000000000000000000000000000000000000000000000000000600052602260045260246000fd5b7f4e487b7100000000000000000000000000000000000000000000000000000000600052604160045260246000fd5b6000601f19601f8301169050919050565b613c3e81613a06565b8114613c4957600080fd5b50565b613c5581613a18565b8114613c6057600080fd5b50565b613c6c81613a24565b8114613c7757600080fd5b50565b613c8381613a70565b8114613c8e57600080fd5b5056fe416e204e465420772f20494420257320686173206265656e206d696e74656420746f2025734142434445464748494a4b4c4d4e4f505152535455565758595a6162636465666768696a6b6c6d6e6f707172737475767778797a303132333435363738392b2fa2646970667358221220c4b9b98c47f2ff5b49652da2052adb5a29cc3be6190e25d4ce2f06c8d315b9a464736f6c634300080000333c73766720786d6c6e733d27687474703a2f2f7777772e77332e6f72672f323030302f73766727207072657365727665417370656374526174696f3d27784d696e594d696e206d656574272076696577426f783d273020302033353020333530273e3c7374796c653e2e62617365207b2066696c6c3a20233534383066313b20666f6e742d66616d696c793a20417269616c3b20666f6e742d73697a653a20323470783b70616464696e673a2030203570783b20746578742d736861646f773a203020302033707820233534383066313b207d3c2f7374796c653e3c726563742077696474683d273130302527206865696768743d2731303025272066696c6c3d272332373238333327202f3e3c7465787420783d273530252720793d273530252720636c6173733d27626173652720646f6d696e616e742d626173656c696e653d276d6964646c652720746578742d616e63686f723d276d6964646c65273e",
  "linkReferences": {},
  "deployedLinkReferences": {}
}